:100000000C942A001895000018950000189500001F
:10001000189500001895000018950000189500002C
:10002000189500001895000018950000189500001C
:10003000189500001895000018950000189500000C
:1000400018950000189500001895000018950000FC
:10005000189500008FE58DBFC0E4E8E34E2E88E0E0
:100060008EBFD8E0F8E05F2EEEEFF7E0A0E6B0E05C
:10007000A89584B7082E877F84BF88E1992781BD22
:1000800091BD88278D933197E9F70E94420266243B
:100090008FEF8ABB8FEF87BB8FEF84BB8FEF81BB66
:1000A00080E082BB8EED8BBB0E942A020E9426025A
:1000B0008CE00E9490028FE712E00E943902EEEB82
:1000C000F5E00E941F028FEB12E00E943902E8EC7B
:1000D000F5E00E941F0285E080936000409160007F
:1000E00000E0041718F011F00C94C30089E080932D
:1000F00061004091610000E0041718F011F00C94C9
:10010000BB0080E08093620000916200033118F030
:1001100011F00C94B300939AE4E3F4E0A0E6B0E0AD
:100120008C919927A8E3B0E00E94DC0289E190E07D
:100130000E94BD029398949AE4E3F4E0A1E6B0E053
:100140008C919927A8E3B0E00E94DC0289E190E05D
:100150000E94BD029498A2E6B0E08C918F5F8C93D0
:1001600010F40C94840080916100815080936100B0
:1001700010F00C94790080916000815080936000B1
:1001800010F00C946E008DED8BBB0E942A020E9431
:1001900026028CE00E9490028FE712E00E94390252
:1001A000E4EDF5E00E941F028FEB12E00E9439029D
:1001B000E8ECF5E00E941F0280E08093600040912F
:1001C000600000E0041718F011F00C94340183E093
:1001D000809361004091610000E0041718F011F075
:1001E0000C942C0180E08093620000916200033146
:1001F00018F011F00C942401939AE4E3F4E0A0E6E3
:10020000B0E08C919927A8E3B0E00E94DC0289E17C
:1002100090E00E94BD029398949AE4E3F4E0A1E692
:10022000B0E08C919927A8E3B0E00E94DC0289E15C
:1002300090E00E94BD029498A2E6B0E08C918F5F9E
:100240008C9310F40C94F5008091610081508093A0
:10025000610010F00C94EA0080916000815080935E
:10026000600010F00C94DF0083EF8BBB0E942A0229
:100270000E9426028CE00E9490028FE712E00E940A
:100280003902E2EEF5E00E941F028FEB12E00E94BD
:100290003902EEEEF5E00E941F0285E080936000D7
:1002A0004091600000E0041718F011F00C94A501D3
:1002B00089E0809361004091610000E0041718F02C
:1002C00011F00C949D0180E0809362000091620027
:1002D000033118F011F00C949501939AE4E3F4E0E3
:1002E000A0E6B0E08C919927A8E3B0E00E94DC0280
:1002F00089E190E00E94BD029398949AE4E3F4E0CF
:10030000A1E6B0E08C919927A8E3B0E00E94DC025E
:1003100089E190E00E94BD029498A2E6B0E08C9141
:100320008F5F8C9310F40C94660180916100815072
:100330008093610010F00C945B018091600081500B
:100340008093600010F00C9450018BEE8BBB0E94E8
:100350002A020E9426028CE00E9490028FE712E09F
:100360000E943902E2EEF5E00E941F028FEB12E0DC
:100370000E943902E8EFF5E00E941F0280E08093BE
:1003800060004091600000E0041718F011F00C9438
:10039000160283E0809361004091610000E0041741
:1003A00018F011F00C940E0280E08093620000912E
:1003B0006200033118F011F00C940602939AE4E302
:1003C000F4E0A0E6B0E08C919927A8E3B0E00E94A9
:1003D000DC0289E190E00E94BD029398949AE4E3E4
:1003E000F4E0A1E6B0E08C919927A8E3B0E00E9488
:1003F000DC0289E190E00E94BD029498A2E6B0E0A0
:100400008C918F5F8C9310F40C94D70180916100D4
:1004100081508093610010F00C94CC0180916000B9
:1004200081508093600010F00C94C1010C94520034
:10043000F894FFCFC0F9A4B0999282F880900E94FE
:10044000CC02802D11F066D0FACF089582E068D0FA
:1004500016D012C081E064D012D080E861C08FE76E
:10046000213039F08FEB223021F08FE8233009F072
:100470008FEC810F0C94900280E852D0089583E0B5
:1004800099277BC08AEF90E00E94BD02A79AA69AA6
:10049000A59AA49AA29AA09AA89885E090E00E94B2
:1004A000BD02AA98AF98AE98AD9AAC9AAA9AEF936B
:1004B000FF93E4ECF0E00E94B102FF91EF91AA9863
:1004C00059D0AA9AEF93FF93E4ECF0E00E94B102B6
:1004D000FF91EF91AA984ED0AA9AEF93FF93E4EC84
:1004E000F0E00E94B102FF91EF91AA9843D0AC983E
:1004F000AA9AEF93FF93E4ECF0E00E94B102FF911F
:10050000EF91AA9837D088E20BD08EE009D086E030
:1005100007D00895A89A829505D004D02BD00895CD
:10052000A898F9CF859510F4AC9A01C0AC98859540
:1005300010F4AD9A01C0AD98859510F4AE9A01C043
:10054000AE98859510F4AF9A01C0AF98AA9AEF9330
:10055000FF93E4ECF0E00E94B102FF91EF91AA98C2
:1005600008953197F1F70895689462F80895E89432
:1005700062F8089581E090E000C0EF93FF93EE27CA
:10058000E82BE92B31F0E0EDF7E03197F1F7019737
:10059000D1F7FF91EF910895C89531960020089505
:1005A00091E005C092E003C094E001C098E0F4DF60
:1005B0000D929A95E1F70895E80FF91FF1CF776151
:1005C0007920313A476F000077617920323A5374CD
:1005D0006F70000077617920313A5761726E696EF1
:1005E000670077617920313A53746F70000077614A
:1005F0007920323A476F000077617920323A5761AB
:06060000726E696E6700D6
:00000001FF
